{
  "contractName": "Storage",
  "abi": [
    {
      "constant": true,
      "inputs": [],
      "name": "_initialized",
      "outputs": [
        {
          "internalType": "bool",
          "name": "",
          "type": "bool"
        }
      ],
      "payable": false,
      "stateMutability": "view",
      "type": "function"
    },
    {
      "constant": true,
      "inputs": [],
      "name": "owner",
      "outputs": [
        {
          "internalType": "address",
          "name": "",
          "type": "address"
        }
      ],
      "payable": false,
      "stateMutability": "view",
      "type": "function"
    }
  ],
  "bytecode": "0x608060405234801561001057600080fd5b5061010d806100206000396000f3fe6080604052348015600f57600080fd5b506004361060325760003560e01c80633072cf601460375780638da5cb5b146057575b600080fd5b603d609f565b604051808215151515815260200191505060405180910390f35b605d60b2565b604051808273ffffffffffffffffffffffffffffffffffffffff1673ffffffffffffffffffffffffffffffffffffffff16815260200191505060405180910390f35b600560149054906101000a900460ff1681565b600560009054906101000a900473ffffffffffffffffffffffffffffffffffffffff168156fea265627a7a72315820e9a083203709f97e9dd9817d5af13235f1c6a8e7e8fe54070c1cc71933d797a964736f6c63430005100032",
  "source": "pragma solidity 0.5.16;\r\n\r\ncontract Storage {\r\n\r\n    //Through mappings we have unlimited options for possible variables in the future\r\n    //Much better than trying to figure out every single veriable you could ever need for the entire life of the contract right from day 1\r\n    //This leaves us alot of room when upgrading the contract and adding functionality in the future\r\n  mapping (string => uint256) _uintStorage;\r\n  mapping (string => address) _addressStorage;\r\n  mapping (string => bool) _boolStorage;\r\n  mapping (string => string) _stringStorage;\r\n  mapping (string => bytes4) _byte4Storage;\r\n  address public owner;\r\n  bool public _initialized;\r\n}\r\n",
  "sourcePath": "C:\\Users\\Dustin Gearhart\\Documents\\Ivan_On_Tech_Academy\\Solidity\\proxyContract\\contracts\\Storage.sol",
  "compiler": {
    "name": "solc",
    "version": "0.5.16+commit.9c3226ce.Emscripten.clang"
  },
  "schemaVersion": "3.4.2",
  "updatedAt": "2021-07-25T00:17:19.644Z",
  "devdoc": {
    "methods": {}
  },
  "userdoc": {
    "methods": {}
  }
}